{
  "address": "0x9D57D748b917193321C5b5E46c176A5465d0f330",
  "abi": [
    {
      "inputs": [],
      "name": "TodoList__NotFound",
      "type": "error"
    },
    {
      "anonymous": false,
      "inputs": [
        {
          "indexed": false,
          "internalType": "address",
          "name": "owner",
          "type": "address"
        }
      ],
      "name": "TodoClear",
      "type": "event"
    },
    {
      "anonymous": false,
      "inputs": [
        {
          "indexed": false,
          "internalType": "address",
          "name": "owner",
          "type": "address"
        }
      ],
      "name": "TodoRemove",
      "type": "event"
    },
    {
      "anonymous": false,
      "inputs": [
        {
          "indexed": false,
          "internalType": "address",
          "name": "owner",
          "type": "address"
        }
      ],
      "name": "TodoStore",
      "type": "event"
    },
    {
      "inputs": [],
      "name": "clearTodo",
      "outputs": [],
      "stateMutability": "nonpayable",
      "type": "function"
    },
    {
      "inputs": [
        {
          "internalType": "uint256",
          "name": "index",
          "type": "uint256"
        }
      ],
      "name": "getTodo",
      "outputs": [
        {
          "components": [
            {
              "internalType": "string",
              "name": "message",
              "type": "string"
            },
            {
              "internalType": "string",
              "name": "date",
              "type": "string"
            },
            {
              "internalType": "bool",
              "name": "isCompleted",
              "type": "bool"
            }
          ],
          "internalType": "struct TodoList.Todo",
          "name": "",
          "type": "tuple"
        }
      ],
      "stateMutability": "view",
      "type": "function"
    },
    {
      "inputs": [],
      "name": "getTodos",
      "outputs": [
        {
          "components": [
            {
              "internalType": "string",
              "name": "message",
              "type": "string"
            },
            {
              "internalType": "string",
              "name": "date",
              "type": "string"
            },
            {
              "internalType": "bool",
              "name": "isCompleted",
              "type": "bool"
            }
          ],
          "internalType": "struct TodoList.Todo[]",
          "name": "",
          "type": "tuple[]"
        }
      ],
      "stateMutability": "view",
      "type": "function"
    },
    {
      "inputs": [
        {
          "internalType": "uint256",
          "name": "index",
          "type": "uint256"
        }
      ],
      "name": "removeTodo",
      "outputs": [],
      "stateMutability": "nonpayable",
      "type": "function"
    },
    {
      "inputs": [
        {
          "internalType": "string",
          "name": "message",
          "type": "string"
        },
        {
          "internalType": "string",
          "name": "date",
          "type": "string"
        },
        {
          "internalType": "bool",
          "name": "isCompleted",
          "type": "bool"
        }
      ],
      "name": "storaTodo",
      "outputs": [],
      "stateMutability": "nonpayable",
      "type": "function"
    }
  ],
  "transactionHash": "0x769b0759f1ec99d3b933253ca69802e35370ce89e77a195d6be807c962673c88",
  "args": [],
  "numDeployments": 1,
  "solcInputHash": "4c526a6995a9d587ebf773c911e4f2a5",
  "bytecode": "0x608060405234801561001057600080fd5b506113f5806100206000396000f3fe608060405234801561001057600080fd5b50600436106100575760003560e01c80633be3d7031461005c578063736a3c4814610078578063c33926cb14610094578063c668bfc6146100b2578063dd68afb6146100bc575b600080fd5b61007660048036038101906100719190610a4e565b6100ec565b005b610092600480360381019061008d9190610bf9565b6102fe565b005b61009c610452565b6040516100a99190610e2b565b60405180910390f35b6100ba61062c565b005b6100d660048036038101906100d19190610a4e565b6106af565b6040516100e39190610ea4565b60405180910390f35b60008060003373ffffffffffffffffffffffffffffffffffffffff1673ffffffffffffffffffffffffffffffffffffffff16815260200190815260200160002090508080549050821061016b576040517fe2bfe83e00000000000000000000000000000000000000000000000000000000815260040160405180910390fd5b806001828054905061017d9190610ef5565b8154811061018e5761018d610f29565b5b90600052602060002090600302018183815481106101af576101ae610f29565b5b9060005260206000209060030201600082018160000190816101d1919061117a565b50600182018160010190816101e6919061117a565b506002820160009054906101000a900460ff168160020160006101000a81548160ff0219169083151502179055509050508080548061022857610227611262565b5b60019003818190600052602060002090600302016000808201600061024d9190610866565b60018201600061025d9190610866565b6002820160006101000a81549060ff021916905550509055806000803373ffffffffffffffffffffffffffffffffffffffff1673ffffffffffffffffffffffffffffffffffffffff1681526020019081526020016000209080546102c29291906108a6565b507f1b3def836fd81bc960fe31b83c801e9e091a27610bae751d6e1ab9051c3ccbc8336040516102f291906112d2565b60405180910390a15050565b60008060003373ffffffffffffffffffffffffffffffffffffffff1673ffffffffffffffffffffffffffffffffffffffff1681526020019081526020016000208054905050506000803373ffffffffffffffffffffffffffffffffffffffff1673ffffffffffffffffffffffffffffffffffffffff1681526020019081526020016000206040518060600160405280858152602001848152602001831515815250908060018154018082558091505060019003906000526020600020906003020160009091909190915060008201518160000190816103dd91906112ed565b5060208201518160010190816103f391906112ed565b5060408201518160020160006101000a81548160ff02191690831515021790555050507fdda0cc29dfed04521fcb610a70764a40866f6052f871005ddd601187b5b7c42a3360405161044591906112d2565b60405180910390a1505050565b60606000803373ffffffffffffffffffffffffffffffffffffffff1673ffffffffffffffffffffffffffffffffffffffff168152602001908152602001600020805480602002602001604051908101604052809291908181526020016000905b8282101561062357838290600052602060002090600302016040518060600160405290816000820180546104e590610f87565b80601f016020809104026020016040519081016040528092919081815260200182805461051190610f87565b801561055e5780601f106105335761010080835404028352916020019161055e565b820191906000526020600020905b81548152906001019060200180831161054157829003601f168201915b5050505050815260200160018201805461057790610f87565b80601f01602080910402602001604051908101604052809291908181526020018280546105a390610f87565b80156105f05780601f106105c5576101008083540402835291602001916105f0565b820191906000526020600020905b8154815290600101906020018083116105d357829003601f168201915b505050505081526020016002820160009054906101000a900460ff161515151581525050815260200190600101906104b2565b50505050905090565b6000803373ffffffffffffffffffffffffffffffffffffffff1673ffffffffffffffffffffffffffffffffffffffff16815260200190815260200160002060006106769190610955565b7f5f735a5e61c8428d945c47b6fefd94915fc65beb0fa059b8f8c077e2390e4e20336040516106a591906112d2565b60405180910390a1565b6106b7610979565b6000803373ffffffffffffffffffffffffffffffffffffffff1673ffffffffffffffffffffffffffffffffffffffff168152602001908152602001600020828154811061070757610706610f29565b5b906000526020600020906003020160405180606001604052908160008201805461073090610f87565b80601f016020809104026020016040519081016040528092919081815260200182805461075c90610f87565b80156107a95780601f1061077e576101008083540402835291602001916107a9565b820191906000526020600020905b81548152906001019060200180831161078c57829003601f168201915b505050505081526020016001820180546107c290610f87565b80601f01602080910402602001604051908101604052809291908181526020018280546107ee90610f87565b801561083b5780601f106108105761010080835404028352916020019161083b565b820191906000526020600020905b81548152906001019060200180831161081e57829003601f168201915b505050505081526020016002820160009054906101000a900460ff1615151515815250509050919050565b50805461087290610f87565b6000825580601f1061088457506108a3565b601f0160209004906000526020600020908101906108a2919061099c565b5b50565b8280548282559060005260206000209060030281019282156109445760005260206000209160030282015b82811115610943578282600082018160000190816108ef919061117a565b5060018201816001019081610904919061117a565b506002820160009054906101000a900460ff168160020160006101000a81548160ff0219169083151502179055505050916003019190600301906108d1565b5b50905061095191906109b9565b5090565b508054600082556003029060005260206000209081019061097691906109b9565b50565b604051806060016040528060608152602001606081526020016000151581525090565b5b808211156109b557600081600090555060010161099d565b5090565b5b80821115610a0057600080820160006109d39190610866565b6001820160006109e39190610866565b6002820160006101000a81549060ff0219169055506003016109ba565b5090565b6000604051905090565b600080fd5b600080fd5b6000819050919050565b610a2b81610a18565b8114610a3657600080fd5b50565b600081359050610a4881610a22565b92915050565b600060208284031215610a6457610a63610a0e565b5b6000610a7284828501610a39565b91505092915050565b600080fd5b600080fd5b6000601f19601f8301169050919050565b7f4e487b7100000000000000000000000000000000000000000000000000000000600052604160045260246000fd5b610ace82610a85565b810181811067ffffffffffffffff82111715610aed57610aec610a96565b5b80604052505050565b6000610b00610a04565b9050610b0c8282610ac5565b919050565b600067ffffffffffffffff821115610b2c57610b2b610a96565b5b610b3582610a85565b9050602081019050919050565b82818337600083830152505050565b6000610b64610b5f84610b11565b610af6565b905082815260208101848484011115610b8057610b7f610a80565b5b610b8b848285610b42565b509392505050565b600082601f830112610ba857610ba7610a7b565b5b8135610bb8848260208601610b51565b91505092915050565b60008115159050919050565b610bd681610bc1565b8114610be157600080fd5b50565b600081359050610bf381610bcd565b92915050565b600080600060608486031215610c1257610c11610a0e565b5b600084013567ffffffffffffffff811115610c3057610c2f610a13565b5b610c3c86828701610b93565b935050602084013567ffffffffffffffff811115610c5d57610c5c610a13565b5b610c6986828701610b93565b9250506040610c7a86828701610be4565b9150509250925092565b600081519050919050565b600082825260208201905092915050565b6000819050602082019050919050565b600081519050919050565b600082825260208201905092915050565b60005b83811015610cea578082015181840152602081019050610ccf565b60008484015250505050565b6000610d0182610cb0565b610d0b8185610cbb565b9350610d1b818560208601610ccc565b610d2481610a85565b840191505092915050565b610d3881610bc1565b82525050565b60006060830160008301518482036000860152610d5b8282610cf6565b91505060208301518482036020860152610d758282610cf6565b9150506040830151610d8a6040860182610d2f565b508091505092915050565b6000610da18383610d3e565b905092915050565b6000602082019050919050565b6000610dc182610c84565b610dcb8185610c8f565b935083602082028501610ddd85610ca0565b8060005b85811015610e195784840389528151610dfa8582610d95565b9450610e0583610da9565b925060208a01995050600181019050610de1565b50829750879550505050505092915050565b60006020820190508181036000830152610e458184610db6565b905092915050565b60006060830160008301518482036000860152610e6a8282610cf6565b91505060208301518482036020860152610e848282610cf6565b9150506040830151610e996040860182610d2f565b508091505092915050565b60006020820190508181036000830152610ebe8184610e4d565b905092915050565b7f4e487b7100000000000000000000000000000000000000000000000000000000600052601160045260246000fd5b6000610f0082610a18565b9150610f0b83610a18565b9250828203905081811115610f2357610f22610ec6565b5b92915050565b7f4e487b7100000000000000000000000000000000000000000000000000000000600052603260045260246000fd5b7f4e487b7100000000000000000000000000000000000000000000000000000000600052602260045260246000fd5b60006002820490506001821680610f9f57607f821691505b602082108103610fb257610fb1610f58565b5b50919050565b600081549050610fc781610f87565b9050919050565b60008190508160005260206000209050919050565b60006020601f8301049050919050565b600082821b905092915050565b6000600883026110307fffffffffffffffffffffffffffffffffffffffffffffffffffffffffffffffff82610ff3565b61103a8683610ff3565b95508019841693508086168417925050509392505050565b6000819050919050565b600061107761107261106d84610a18565b611052565b610a18565b9050919050565b6000819050919050565b6110918361105c565b6110a561109d8261107e565b848454611000565b825550505050565b600090565b6110ba6110ad565b6110c5818484611088565b505050565b5b818110156110e9576110de6000826110b2565b6001810190506110cb565b5050565b601f82111561112e576110ff81610fce565b61110884610fe3565b81016020851015611117578190505b61112b61112385610fe3565b8301826110ca565b50505b505050565b600082821c905092915050565b600061115160001984600802611133565b1980831691505092915050565b600061116a8383611140565b9150826002028217905092915050565b818103611188575050611260565b61119182610fb8565b67ffffffffffffffff8111156111aa576111a9610a96565b5b6111b48254610f87565b6111bf8282856110ed565b6000601f8311600181146111ee57600084156111dc578287015490505b6111e6858261115e565b865550611259565b601f1984166111fc87610fce565b965061120786610fce565b60005b8281101561122f5784890154825560018201915060018501945060208101905061120a565b8683101561124c5784890154611248601f891682611140565b8355505b6001600288020188555050505b5050505050505b565b7f4e487b7100000000000000000000000000000000000000000000000000000000600052603160045260246000fd5b600073ffffffffffffffffffffffffffffffffffffffff82169050919050565b60006112bc82611291565b9050919050565b6112cc816112b1565b82525050565b60006020820190506112e760008301846112c3565b92915050565b6112f682610cb0565b67ffffffffffffffff81111561130f5761130e610a96565b5b6113198254610f87565b6113248282856110ed565b600060209050601f8311600181146113575760008415611345578287015190505b61134f858261115e565b8655506113b7565b601f19841661136586610fce565b60005b8281101561138d57848901518255600182019150602085019450602081019050611368565b868310156113aa57848901516113a6601f891682611140565b8355505b6001600288020188555050505b50505050505056fea26469706673582212207e5fa428cf7a8a2967b95b56dc387e7b8defa055c21adaa1776a0ac081d2505564736f6c63430008130033",
  "devdoc": {
    "kind": "dev",
    "methods": {},
    "version": 1
  },
  "userdoc": {
    "kind": "user",
    "methods": {},
    "version": 1
  },
  "storageLayout": {
    "storage": [
      {
        "astId": 28,
        "contract": "contracts/TodoList.sol:TodoList",
        "label": "s_addressToTodos",
        "offset": 0,
        "slot": "0",
        "type": "t_mapping(t_address,t_array(t_struct(Todo)10_storage)dyn_storage)"
      }
    ],
    "types": {
      "t_address": {
        "encoding": "inplace",
        "label": "address",
        "numberOfBytes": "20"
      },
      "t_array(t_struct(Todo)10_storage)dyn_storage": {
        "base": "t_struct(Todo)10_storage",
        "encoding": "dynamic_array",
        "label": "struct TodoList.Todo[]",
        "numberOfBytes": "32"
      },
      "t_bool": {
        "encoding": "inplace",
        "label": "bool",
        "numberOfBytes": "1"
      },
      "t_mapping(t_address,t_array(t_struct(Todo)10_storage)dyn_storage)": {
        "encoding": "mapping",
        "key": "t_address",
        "label": "mapping(address => struct TodoList.Todo[])",
        "numberOfBytes": "32",
        "value": "t_array(t_struct(Todo)10_storage)dyn_storage"
      },
      "t_string_storage": {
        "encoding": "bytes",
        "label": "string",
        "numberOfBytes": "32"
      },
      "t_struct(Todo)10_storage": {
        "encoding": "inplace",
        "label": "struct TodoList.Todo",
        "members": [
          {
            "astId": 5,
            "contract": "contracts/TodoList.sol:TodoList",
            "label": "message",
            "offset": 0,
            "slot": "0",
            "type": "t_string_storage"
          },
          {
            "astId": 7,
            "contract": "contracts/TodoList.sol:TodoList",
            "label": "date",
            "offset": 0,
            "slot": "1",
            "type": "t_string_storage"
          },
          {
            "astId": 9,
            "contract": "contracts/TodoList.sol:TodoList",
            "label": "isCompleted",
            "offset": 0,
            "slot": "2",
            "type": "t_bool"
          }
        ],
        "numberOfBytes": "96"
      }
    }
  }
}