{
  "address": "0x2341DFf9E0e5913CdAB20ccf10FE19eeacC1201f",
  "abi": [
    {
      "inputs": [],
      "name": "TodoList__NotFound",
      "type": "error"
    },
    {
      "anonymous": false,
      "inputs": [
        {
          "indexed": false,
          "internalType": "address",
          "name": "owner",
          "type": "address"
        }
      ],
      "name": "TodoClear",
      "type": "event"
    },
    {
      "anonymous": false,
      "inputs": [
        {
          "indexed": false,
          "internalType": "address",
          "name": "owner",
          "type": "address"
        }
      ],
      "name": "TodoRemove",
      "type": "event"
    },
    {
      "anonymous": false,
      "inputs": [
        {
          "indexed": false,
          "internalType": "address",
          "name": "owner",
          "type": "address"
        }
      ],
      "name": "TodoStore",
      "type": "event"
    },
    {
      "anonymous": false,
      "inputs": [
        {
          "indexed": false,
          "internalType": "address",
          "name": "owner",
          "type": "address"
        }
      ],
      "name": "TodoUpdate",
      "type": "event"
    },
    {
      "inputs": [],
      "name": "clearTodo",
      "outputs": [],
      "stateMutability": "nonpayable",
      "type": "function"
    },
    {
      "inputs": [
        {
          "internalType": "uint256",
          "name": "index",
          "type": "uint256"
        }
      ],
      "name": "getTodo",
      "outputs": [
        {
          "components": [
            {
              "internalType": "string",
              "name": "message",
              "type": "string"
            },
            {
              "internalType": "string",
              "name": "date",
              "type": "string"
            },
            {
              "internalType": "bool",
              "name": "isCompleted",
              "type": "bool"
            }
          ],
          "internalType": "struct TodoList.Todo",
          "name": "",
          "type": "tuple"
        }
      ],
      "stateMutability": "view",
      "type": "function"
    },
    {
      "inputs": [],
      "name": "getTodos",
      "outputs": [
        {
          "components": [
            {
              "internalType": "string",
              "name": "message",
              "type": "string"
            },
            {
              "internalType": "string",
              "name": "date",
              "type": "string"
            },
            {
              "internalType": "bool",
              "name": "isCompleted",
              "type": "bool"
            }
          ],
          "internalType": "struct TodoList.Todo[]",
          "name": "",
          "type": "tuple[]"
        }
      ],
      "stateMutability": "view",
      "type": "function"
    },
    {
      "inputs": [
        {
          "internalType": "uint256",
          "name": "index",
          "type": "uint256"
        }
      ],
      "name": "markTodoDone",
      "outputs": [],
      "stateMutability": "nonpayable",
      "type": "function"
    },
    {
      "inputs": [
        {
          "internalType": "uint256",
          "name": "index",
          "type": "uint256"
        }
      ],
      "name": "markTodoUndone",
      "outputs": [],
      "stateMutability": "nonpayable",
      "type": "function"
    },
    {
      "inputs": [
        {
          "internalType": "uint256",
          "name": "index",
          "type": "uint256"
        }
      ],
      "name": "removeTodo",
      "outputs": [],
      "stateMutability": "nonpayable",
      "type": "function"
    },
    {
      "inputs": [
        {
          "internalType": "string",
          "name": "message",
          "type": "string"
        },
        {
          "internalType": "string",
          "name": "date",
          "type": "string"
        },
        {
          "internalType": "bool",
          "name": "isCompleted",
          "type": "bool"
        }
      ],
      "name": "storeTodo",
      "outputs": [],
      "stateMutability": "nonpayable",
      "type": "function"
    },
    {
      "inputs": [
        {
          "internalType": "string",
          "name": "message",
          "type": "string"
        },
        {
          "internalType": "string",
          "name": "date",
          "type": "string"
        },
        {
          "internalType": "bool",
          "name": "isCompleted",
          "type": "bool"
        },
        {
          "internalType": "uint256",
          "name": "index",
          "type": "uint256"
        }
      ],
      "name": "updateTodo",
      "outputs": [],
      "stateMutability": "nonpayable",
      "type": "function"
    }
  ],
  "transactionHash": "0x527ee0d40dc25e1e46a4cf15f707a23a2c3eff0b3d9b95e9e52497fd9704978c",
  "args": [],
  "numDeployments": 1,
  "solcInputHash": "5b2bf833ce2106efb621bee025ef6e9c",
  "bytecode": "0x608060405234801561001057600080fd5b506118f5806100206000396000f3fe608060405234801561001057600080fd5b50600436106100885760003560e01c8063b5dbc4481161005b578063b5dbc448146100fd578063c33926cb14610119578063c668bfc614610137578063dd68afb61461014157610088565b80631e20bebd1461008d5780633be3d703146100a957806365de48ce146100c55780637c6c0fc2146100e1575b600080fd5b6100a760048036038101906100a29190610eaf565b610171565b005b6100c360048036038101906100be9190610eaf565b6102b6565b005b6100df60048036038101906100da919061105a565b6104c8565b005b6100fb60048036038101906100f691906110e5565b6105d6565b005b61011760048036038101906101129190610eaf565b61076e565b005b6101216108b3565b60405161012e919061132b565b60405180910390f35b61013f610a8d565b005b61015b60048036038101906101569190610eaf565b610b10565b60405161016891906113a4565b60405180910390f35b60008060003373ffffffffffffffffffffffffffffffffffffffff1673ffffffffffffffffffffffffffffffffffffffff1681526020019081526020016000209050808054905082106101f0576040517fe2bfe83e00000000000000000000000000000000000000000000000000000000815260040160405180910390fd5b6001818381548110610205576102046113c6565b5b906000526020600020906003020160020160006101000a81548160ff021916908315150217905550806000803373ffffffffffffffffffffffffffffffffffffffff1673ffffffffffffffffffffffffffffffffffffffff16815260200190815260200160002090805461027a929190610cc7565b507fd7af541a9a067d76d1edcc4a6e29675424934d12623e02c4cb0685b3d1fe9f03336040516102aa9190611436565b60405180910390a15050565b60008060003373ffffffffffffffffffffffffffffffffffffffff1673ffffffffffffffffffffffffffffffffffffffff168152602001908152602001600020905080805490508210610335576040517fe2bfe83e00000000000000000000000000000000000000000000000000000000815260040160405180910390fd5b80600182805490506103479190611480565b81548110610358576103576113c6565b5b9060005260206000209060030201818381548110610379576103786113c6565b5b90600052602060002090600302016000820181600001908161039b91906116d6565b50600182018160010190816103b091906116d6565b506002820160009054906101000a900460ff168160020160006101000a81548160ff021916908315150217905550905050808054806103f2576103f16117be565b5b6001900381819060005260206000209060030201600080820160006104179190610d76565b6001820160006104279190610d76565b6002820160006101000a81549060ff021916905550509055806000803373ffffffffffffffffffffffffffffffffffffffff1673ffffffffffffffffffffffffffffffffffffffff16815260200190815260200160002090805461048c929190610cc7565b507f1b3def836fd81bc960fe31b83c801e9e091a27610bae751d6e1ab9051c3ccbc8336040516104bc9190611436565b60405180910390a15050565b6000803373ffffffffffffffffffffffffffffffffffffffff1673ffffffffffffffffffffffffffffffffffffffff16815260200190815260200160002060405180606001604052808581526020018481526020018315158152509080600181540180825580915050600190039060005260206000209060030201600090919091909150600082015181600001908161056191906117ed565b50602082015181600101908161057791906117ed565b5060408201518160020160006101000a81548160ff02191690831515021790555050507fdda0cc29dfed04521fcb610a70764a40866f6052f871005ddd601187b5b7c42a336040516105c99190611436565b60405180910390a1505050565b60008060003373ffffffffffffffffffffffffffffffffffffffff1673ffffffffffffffffffffffffffffffffffffffff168152602001908152602001600020905080805490508210610655576040517fe2bfe83e00000000000000000000000000000000000000000000000000000000815260040160405180910390fd5b6040518060600160405280868152602001858152602001841515815250818381548110610685576106846113c6565b5b906000526020600020906003020160008201518160000190816106a891906117ed565b5060208201518160010190816106be91906117ed565b5060408201518160020160006101000a81548160ff021916908315150217905550905050806000803373ffffffffffffffffffffffffffffffffffffffff1673ffffffffffffffffffffffffffffffffffffffff16815260200190815260200160002090805461072f929190610cc7565b507fd7af541a9a067d76d1edcc4a6e29675424934d12623e02c4cb0685b3d1fe9f033360405161075f9190611436565b60405180910390a15050505050565b60008060003373ffffffffffffffffffffffffffffffffffffffff1673ffffffffffffffffffffffffffffffffffffffff1681526020019081526020016000209050808054905082106107ed576040517fe2bfe83e00000000000000000000000000000000000000000000000000000000815260040160405180910390fd5b6000818381548110610802576108016113c6565b5b906000526020600020906003020160020160006101000a81548160ff021916908315150217905550806000803373ffffffffffffffffffffffffffffffffffffffff1673ffffffffffffffffffffffffffffffffffffffff168152602001908152602001600020908054610877929190610cc7565b507fd7af541a9a067d76d1edcc4a6e29675424934d12623e02c4cb0685b3d1fe9f03336040516108a79190611436565b60405180910390a15050565b60606000803373ffffffffffffffffffffffffffffffffffffffff1673ffffffffffffffffffffffffffffffffffffffff168152602001908152602001600020805480602002602001604051908101604052809291908181526020016000905b82821015610a845783829060005260206000209060030201604051806060016040529081600082018054610946906114e3565b80601f0160208091040260200160405190810160405280929190818152602001828054610972906114e3565b80156109bf5780601f10610994576101008083540402835291602001916109bf565b820191906000526020600020905b8154815290600101906020018083116109a257829003601f168201915b505050505081526020016001820180546109d8906114e3565b80601f0160208091040260200160405190810160405280929190818152602001828054610a04906114e3565b8015610a515780601f10610a2657610100808354040283529160200191610a51565b820191906000526020600020905b815481529060010190602001808311610a3457829003601f168201915b505050505081526020016002820160009054906101000a900460ff16151515158152505081526020019060010190610913565b50505050905090565b6000803373ffffffffffffffffffffffffffffffffffffffff1673ffffffffffffffffffffffffffffffffffffffff1681526020019081526020016000206000610ad79190610db6565b7f5f735a5e61c8428d945c47b6fefd94915fc65beb0fa059b8f8c077e2390e4e2033604051610b069190611436565b60405180910390a1565b610b18610dda565b6000803373ffffffffffffffffffffffffffffffffffffffff1673ffffffffffffffffffffffffffffffffffffffff1681526020019081526020016000208281548110610b6857610b676113c6565b5b9060005260206000209060030201604051806060016040529081600082018054610b91906114e3565b80601f0160208091040260200160405190810160405280929190818152602001828054610bbd906114e3565b8015610c0a5780601f10610bdf57610100808354040283529160200191610c0a565b820191906000526020600020905b815481529060010190602001808311610bed57829003601f168201915b50505050508152602001600182018054610c23906114e3565b80601f0160208091040260200160405190810160405280929190818152602001828054610c4f906114e3565b8015610c9c5780601f10610c7157610100808354040283529160200191610c9c565b820191906000526020600020905b815481529060010190602001808311610c7f57829003601f168201915b505050505081526020016002820160009054906101000a900460ff1615151515815250509050919050565b828054828255906000526020600020906003028101928215610d655760005260206000209160030282015b82811115610d6457828260008201816000019081610d1091906116d6565b5060018201816001019081610d2591906116d6565b506002820160009054906101000a900460ff168160020160006101000a81548160ff021916908315150217905550505091600301919060030190610cf2565b5b509050610d729190610dfd565b5090565b508054610d82906114e3565b6000825580601f10610d945750610db3565b601f016020900490600052602060002090810190610db29190610e48565b5b50565b5080546000825560030290600052602060002090810190610dd79190610dfd565b50565b604051806060016040528060608152602001606081526020016000151581525090565b5b80821115610e445760008082016000610e179190610d76565b600182016000610e279190610d76565b6002820160006101000a81549060ff021916905550600301610dfe565b5090565b5b80821115610e61576000816000905550600101610e49565b5090565b6000604051905090565b600080fd5b600080fd5b6000819050919050565b610e8c81610e79565b8114610e9757600080fd5b50565b600081359050610ea981610e83565b92915050565b600060208284031215610ec557610ec4610e6f565b5b6000610ed384828501610e9a565b91505092915050565b600080fd5b600080fd5b6000601f19601f8301169050919050565b7f4e487b7100000000000000000000000000000000000000000000000000000000600052604160045260246000fd5b610f2f82610ee6565b810181811067ffffffffffffffff82111715610f4e57610f4d610ef7565b5b80604052505050565b6000610f61610e65565b9050610f6d8282610f26565b919050565b600067ffffffffffffffff821115610f8d57610f8c610ef7565b5b610f9682610ee6565b9050602081019050919050565b82818337600083830152505050565b6000610fc5610fc084610f72565b610f57565b905082815260208101848484011115610fe157610fe0610ee1565b5b610fec848285610fa3565b509392505050565b600082601f83011261100957611008610edc565b5b8135611019848260208601610fb2565b91505092915050565b60008115159050919050565b61103781611022565b811461104257600080fd5b50565b6000813590506110548161102e565b92915050565b60008060006060848603121561107357611072610e6f565b5b600084013567ffffffffffffffff81111561109157611090610e74565b5b61109d86828701610ff4565b935050602084013567ffffffffffffffff8111156110be576110bd610e74565b5b6110ca86828701610ff4565b92505060406110db86828701611045565b9150509250925092565b600080600080608085870312156110ff576110fe610e6f565b5b600085013567ffffffffffffffff81111561111d5761111c610e74565b5b61112987828801610ff4565b945050602085013567ffffffffffffffff81111561114a57611149610e74565b5b61115687828801610ff4565b935050604061116787828801611045565b925050606061117887828801610e9a565b91505092959194509250565b600081519050919050565b600082825260208201905092915050565b6000819050602082019050919050565b600081519050919050565b600082825260208201905092915050565b60005b838110156111ea5780820151818401526020810190506111cf565b60008484015250505050565b6000611201826111b0565b61120b81856111bb565b935061121b8185602086016111cc565b61122481610ee6565b840191505092915050565b61123881611022565b82525050565b6000606083016000830151848203600086015261125b82826111f6565b9150506020830151848203602086015261127582826111f6565b915050604083015161128a604086018261122f565b508091505092915050565b60006112a1838361123e565b905092915050565b6000602082019050919050565b60006112c182611184565b6112cb818561118f565b9350836020820285016112dd856111a0565b8060005b8581101561131957848403895281516112fa8582611295565b9450611305836112a9565b925060208a019950506001810190506112e1565b50829750879550505050505092915050565b6000602082019050818103600083015261134581846112b6565b905092915050565b6000606083016000830151848203600086015261136a82826111f6565b9150506020830151848203602086015261138482826111f6565b9150506040830151611399604086018261122f565b508091505092915050565b600060208201905081810360008301526113be818461134d565b905092915050565b7f4e487b7100000000000000000000000000000000000000000000000000000000600052603260045260246000fd5b600073ffffffffffffffffffffffffffffffffffffffff82169050919050565b6000611420826113f5565b9050919050565b61143081611415565b82525050565b600060208201905061144b6000830184611427565b92915050565b7f4e487b7100000000000000000000000000000000000000000000000000000000600052601160045260246000fd5b600061148b82610e79565b915061149683610e79565b92508282039050818111156114ae576114ad611451565b5b92915050565b7f4e487b7100000000000000000000000000000000000000000000000000000000600052602260045260246000fd5b600060028204905060018216806114fb57607f821691505b60208210810361150e5761150d6114b4565b5b50919050565b600081549050611523816114e3565b9050919050565b60008190508160005260206000209050919050565b60006020601f8301049050919050565b600082821b905092915050565b60006008830261158c7fffffffffffffffffffffffffffffffffffffffffffffffffffffffffffffffff8261154f565b611596868361154f565b95508019841693508086168417925050509392505050565b6000819050919050565b60006115d36115ce6115c984610e79565b6115ae565b610e79565b9050919050565b6000819050919050565b6115ed836115b8565b6116016115f9826115da565b84845461155c565b825550505050565b600090565b611616611609565b6116218184846115e4565b505050565b5b818110156116455761163a60008261160e565b600181019050611627565b5050565b601f82111561168a5761165b8161152a565b6116648461153f565b81016020851015611673578190505b61168761167f8561153f565b830182611626565b50505b505050565b600082821c905092915050565b60006116ad6000198460080261168f565b1980831691505092915050565b60006116c6838361169c565b9150826002028217905092915050565b8181036116e45750506117bc565b6116ed82611514565b67ffffffffffffffff81111561170657611705610ef7565b5b61171082546114e3565b61171b828285611649565b6000601f83116001811461174a5760008415611738578287015490505b61174285826116ba565b8655506117b5565b601f1984166117588761152a565b96506117638661152a565b60005b8281101561178b57848901548255600182019150600185019450602081019050611766565b868310156117a857848901546117a4601f89168261169c565b8355505b6001600288020188555050505b5050505050505b565b7f4e487b7100000000000000000000000000000000000000000000000000000000600052603160045260246000fd5b6117f6826111b0565b67ffffffffffffffff81111561180f5761180e610ef7565b5b61181982546114e3565b611824828285611649565b600060209050601f8311600181146118575760008415611845578287015190505b61184f85826116ba565b8655506118b7565b601f1984166118658661152a565b60005b8281101561188d57848901518255600182019150602085019450602081019050611868565b868310156118aa57848901516118a6601f89168261169c565b8355505b6001600288020188555050505b50505050505056fea2646970667358221220eeb8b480d7b48d522a1d5e9895eb0729f8485775419b520c3178cb0fdbbaf9e364736f6c63430008130033",
  "devdoc": {
    "kind": "dev",
    "methods": {},
    "version": 1
  },
  "userdoc": {
    "kind": "user",
    "methods": {},
    "version": 1
  },
  "storageLayout": {
    "storage": [
      {
        "astId": 32,
        "contract": "contracts/TodoList.sol:TodoList",
        "label": "s_addressToTodos",
        "offset": 0,
        "slot": "0",
        "type": "t_mapping(t_address,t_array(t_struct(Todo)10_storage)dyn_storage)"
      }
    ],
    "types": {
      "t_address": {
        "encoding": "inplace",
        "label": "address",
        "numberOfBytes": "20"
      },
      "t_array(t_struct(Todo)10_storage)dyn_storage": {
        "base": "t_struct(Todo)10_storage",
        "encoding": "dynamic_array",
        "label": "struct TodoList.Todo[]",
        "numberOfBytes": "32"
      },
      "t_bool": {
        "encoding": "inplace",
        "label": "bool",
        "numberOfBytes": "1"
      },
      "t_mapping(t_address,t_array(t_struct(Todo)10_storage)dyn_storage)": {
        "encoding": "mapping",
        "key": "t_address",
        "label": "mapping(address => struct TodoList.Todo[])",
        "numberOfBytes": "32",
        "value": "t_array(t_struct(Todo)10_storage)dyn_storage"
      },
      "t_string_storage": {
        "encoding": "bytes",
        "label": "string",
        "numberOfBytes": "32"
      },
      "t_struct(Todo)10_storage": {
        "encoding": "inplace",
        "label": "struct TodoList.Todo",
        "members": [
          {
            "astId": 5,
            "contract": "contracts/TodoList.sol:TodoList",
            "label": "message",
            "offset": 0,
            "slot": "0",
            "type": "t_string_storage"
          },
          {
            "astId": 7,
            "contract": "contracts/TodoList.sol:TodoList",
            "label": "date",
            "offset": 0,
            "slot": "1",
            "type": "t_string_storage"
          },
          {
            "astId": 9,
            "contract": "contracts/TodoList.sol:TodoList",
            "label": "isCompleted",
            "offset": 0,
            "slot": "2",
            "type": "t_bool"
          }
        ],
        "numberOfBytes": "96"
      }
    }
  }
}