{
  "address": "0xAEEdCB83C8BA859781b1cd8e80E1C4b35084183a",
  "abi": [
    {
      "inputs": [],
      "name": "TodoList__NotFound",
      "type": "error"
    },
    {
      "anonymous": false,
      "inputs": [
        {
          "indexed": false,
          "internalType": "address",
          "name": "owner",
          "type": "address"
        }
      ],
      "name": "TodoClear",
      "type": "event"
    },
    {
      "anonymous": false,
      "inputs": [
        {
          "indexed": false,
          "internalType": "address",
          "name": "owner",
          "type": "address"
        }
      ],
      "name": "TodoRemove",
      "type": "event"
    },
    {
      "anonymous": false,
      "inputs": [
        {
          "indexed": false,
          "internalType": "address",
          "name": "owner",
          "type": "address"
        }
      ],
      "name": "TodoStore",
      "type": "event"
    },
    {
      "anonymous": false,
      "inputs": [
        {
          "indexed": false,
          "internalType": "address",
          "name": "owner",
          "type": "address"
        }
      ],
      "name": "TodoUpdate",
      "type": "event"
    },
    {
      "inputs": [],
      "name": "clearTodo",
      "outputs": [],
      "stateMutability": "nonpayable",
      "type": "function"
    },
    {
      "inputs": [],
      "name": "getCurrentId",
      "outputs": [
        {
          "internalType": "uint256",
          "name": "",
          "type": "uint256"
        }
      ],
      "stateMutability": "view",
      "type": "function"
    },
    {
      "inputs": [
        {
          "internalType": "uint256",
          "name": "id",
          "type": "uint256"
        }
      ],
      "name": "getTodo",
      "outputs": [
        {
          "components": [
            {
              "internalType": "uint256",
              "name": "id",
              "type": "uint256"
            },
            {
              "internalType": "string",
              "name": "message",
              "type": "string"
            },
            {
              "internalType": "uint256",
              "name": "date",
              "type": "uint256"
            },
            {
              "internalType": "bool",
              "name": "isCompleted",
              "type": "bool"
            }
          ],
          "internalType": "struct TodoList.Todo",
          "name": "",
          "type": "tuple"
        }
      ],
      "stateMutability": "view",
      "type": "function"
    },
    {
      "inputs": [
        {
          "internalType": "uint256",
          "name": "id",
          "type": "uint256"
        }
      ],
      "name": "getTodoIndex",
      "outputs": [
        {
          "internalType": "uint256",
          "name": "",
          "type": "uint256"
        }
      ],
      "stateMutability": "view",
      "type": "function"
    },
    {
      "inputs": [],
      "name": "getTodos",
      "outputs": [
        {
          "components": [
            {
              "internalType": "uint256",
              "name": "id",
              "type": "uint256"
            },
            {
              "internalType": "string",
              "name": "message",
              "type": "string"
            },
            {
              "internalType": "uint256",
              "name": "date",
              "type": "uint256"
            },
            {
              "internalType": "bool",
              "name": "isCompleted",
              "type": "bool"
            }
          ],
          "internalType": "struct TodoList.Todo[]",
          "name": "",
          "type": "tuple[]"
        }
      ],
      "stateMutability": "view",
      "type": "function"
    },
    {
      "inputs": [
        {
          "internalType": "uint256",
          "name": "id",
          "type": "uint256"
        }
      ],
      "name": "markTodoDone",
      "outputs": [],
      "stateMutability": "nonpayable",
      "type": "function"
    },
    {
      "inputs": [
        {
          "internalType": "uint256",
          "name": "id",
          "type": "uint256"
        }
      ],
      "name": "markTodoUndone",
      "outputs": [],
      "stateMutability": "nonpayable",
      "type": "function"
    },
    {
      "inputs": [
        {
          "internalType": "uint256",
          "name": "id",
          "type": "uint256"
        }
      ],
      "name": "removeTodo",
      "outputs": [],
      "stateMutability": "nonpayable",
      "type": "function"
    },
    {
      "inputs": [
        {
          "internalType": "string",
          "name": "message",
          "type": "string"
        },
        {
          "internalType": "uint256",
          "name": "date",
          "type": "uint256"
        },
        {
          "internalType": "bool",
          "name": "isCompleted",
          "type": "bool"
        }
      ],
      "name": "storeTodo",
      "outputs": [],
      "stateMutability": "nonpayable",
      "type": "function"
    },
    {
      "inputs": [
        {
          "internalType": "string",
          "name": "message",
          "type": "string"
        },
        {
          "internalType": "uint256",
          "name": "date",
          "type": "uint256"
        },
        {
          "internalType": "bool",
          "name": "isCompleted",
          "type": "bool"
        },
        {
          "internalType": "uint256",
          "name": "id",
          "type": "uint256"
        }
      ],
      "name": "updateTodo",
      "outputs": [],
      "stateMutability": "nonpayable",
      "type": "function"
    }
  ],
  "transactionHash": "0x6e18f9e837b5fe7da81f4c9d0f7d8a05a5808427df8d1ecafce232d32bdbe07f",
  "args": [],
  "numDeployments": 3,
  "solcInputHash": "1e45a5cb1f4e78638a97ed8b9e67a4ea",
  "bytecode": "0x60806040526001805534801561001457600080fd5b506119c9806100246000396000f3fe608060405234801561001057600080fd5b506004361061009e5760003560e01c8063b5dbc44811610066578063b5dbc44814610145578063c33926cb14610161578063c668bfc61461017f578063dd68afb614610189578063f751a228146101b95761009e565b80631e20bebd146100a35780633be3d703146100bf5780636c143862146100db578063772cbb8b146100f95780638b3b54cb14610115575b600080fd5b6100bd60048036038101906100b89190610f22565b6101d5565b005b6100d960048036038101906100d49190610f22565b6102eb565b005b6100e36104e5565b6040516100f09190610f5e565b60405180910390f35b610113600480360381019061010e91906110f7565b6104ef565b005b61012f600480360381019061012a9190610f22565b610617565b60405161013c9190610f5e565b60405180910390f35b61015f600480360381019061015a9190610f22565b6106e9565b005b6101696107ff565b6040516101769190611328565b60405180910390f35b61018761095b565b005b6101a3600480360381019061019e9190610f22565b6109de565b6040516101b091906113ad565b60405180910390f35b6101d360048036038101906101ce91906113cf565b610ba3565b005b60008060003373ffffffffffffffffffffffffffffffffffffffff1673ffffffffffffffffffffffffffffffffffffffff1681526020019081526020016000209050600061022283610617565b9050600182828154811061023957610238611452565b5b906000526020600020906004020160030160006101000a81548160ff021916908315150217905550816000803373ffffffffffffffffffffffffffffffffffffffff1673ffffffffffffffffffffffffffffffffffffffff1681526020019081526020016000209080546102ae929190610d34565b507fd7af541a9a067d76d1edcc4a6e29675424934d12623e02c4cb0685b3d1fe9f03336040516102de91906114c2565b60405180910390a1505050565b60008060003373ffffffffffffffffffffffffffffffffffffffff1673ffffffffffffffffffffffffffffffffffffffff1681526020019081526020016000209050600061033883610617565b90506001828054905061034b919061150c565b81146103fd578160018380549050610363919061150c565b8154811061037457610373611452565b5b906000526020600020906004020182828154811061039557610394611452565b5b906000526020600020906004020160008201548160000155600182018160010190816103c19190611762565b50600282015481600201556003820160009054906101000a900460ff168160030160006101000a81548160ff0219169083151502179055509050505b8180548061040e5761040d61184a565b5b600190038181906000526020600020906004020160008082016000905560018201600061043b9190610de2565b60028201600090556003820160006101000a81549060ff021916905550509055816000803373ffffffffffffffffffffffffffffffffffffffff1673ffffffffffffffffffffffffffffffffffffffff1681526020019081526020016000209080546104a8929190610d34565b507f1b3def836fd81bc960fe31b83c801e9e091a27610bae751d6e1ab9051c3ccbc8336040516104d891906114c2565b60405180910390a1505050565b6000600154905090565b6000803373ffffffffffffffffffffffffffffffffffffffff1673ffffffffffffffffffffffffffffffffffffffff16815260200190815260200160002060405180608001604052806001600081548092919061054b90611879565b91905055815260200185815260200184815260200183151581525090806001815401808255809150506001900390600052602060002090600402016000909190919091506000820151816000015560208201518160010190816105ae91906118c1565b506040820151816002015560608201518160030160006101000a81548160ff02191690831515021790555050507fdda0cc29dfed04521fcb610a70764a40866f6052f871005ddd601187b5b7c42a3360405161060a91906114c2565b60405180910390a1505050565b6000806000803373ffffffffffffffffffffffffffffffffffffffff1673ffffffffffffffffffffffffffffffffffffffff168152602001908152602001600020905060005b81805490508110156106b1578382828154811061067d5761067c611452565b5b9060005260206000209060040201600001540361069e5780925050506106e4565b80806106a990611879565b91505061065d565b506040517fe2bfe83e00000000000000000000000000000000000000000000000000000000815260040160405180910390fd5b919050565b60008060003373ffffffffffffffffffffffffffffffffffffffff1673ffffffffffffffffffffffffffffffffffffffff1681526020019081526020016000209050600061073683610617565b9050600082828154811061074d5761074c611452565b5b906000526020600020906004020160030160006101000a81548160ff021916908315150217905550816000803373ffffffffffffffffffffffffffffffffffffffff1673ffffffffffffffffffffffffffffffffffffffff1681526020019081526020016000209080546107c2929190610d34565b507fd7af541a9a067d76d1edcc4a6e29675424934d12623e02c4cb0685b3d1fe9f03336040516107f291906114c2565b60405180910390a1505050565b60606000803373ffffffffffffffffffffffffffffffffffffffff1673ffffffffffffffffffffffffffffffffffffffff168152602001908152602001600020805480602002602001604051908101604052809291908181526020016000905b8282101561095257838290600052602060002090600402016040518060800160405290816000820154815260200160018201805461089c9061156f565b80601f01602080910402602001604051908101604052809291908181526020018280546108c89061156f565b80156109155780601f106108ea57610100808354040283529160200191610915565b820191906000526020600020905b8154815290600101906020018083116108f857829003601f168201915b50505050508152602001600282015481526020016003820160009054906101000a900460ff1615151515815250508152602001906001019061085f565b50505050905090565b6000803373ffffffffffffffffffffffffffffffffffffffff1673ffffffffffffffffffffffffffffffffffffffff16815260200190815260200160002060006109a59190610e22565b7f5f735a5e61c8428d945c47b6fefd94915fc65beb0fa059b8f8c077e2390e4e20336040516109d491906114c2565b60405180910390a1565b6109e6610e46565b60008060003373ffffffffffffffffffffffffffffffffffffffff1673ffffffffffffffffffffffffffffffffffffffff168152602001908152602001600020905060005b8180549050811015610b6b5783828281548110610a4b57610a4a611452565b5b90600052602060002090600402016000015403610b5857818181548110610a7557610a74611452565b5b906000526020600020906004020160405180608001604052908160008201548152602001600182018054610aa89061156f565b80601f0160208091040260200160405190810160405280929190818152602001828054610ad49061156f565b8015610b215780601f10610af657610100808354040283529160200191610b21565b820191906000526020600020905b815481529060010190602001808311610b0457829003601f168201915b50505050508152602001600282015481526020016003820160009054906101000a900460ff16151515158152505092505050610b9e565b8080610b6390611879565b915050610a2b565b506040517fe2bfe83e00000000000000000000000000000000000000000000000000000000815260040160405180910390fd5b919050565b60008060003373ffffffffffffffffffffffffffffffffffffffff1673ffffffffffffffffffffffffffffffffffffffff16815260200190815260200160002090506000610bf083610617565b90506040518060800160405280838381548110610c1057610c0f611452565b5b9060005260206000209060040201600001548152602001878152602001868152602001851515815250828281548110610c4c57610c4b611452565b5b9060005260206000209060040201600082015181600001556020820151816001019081610c7991906118c1565b506040820151816002015560608201518160030160006101000a81548160ff021916908315150217905550905050816000803373ffffffffffffffffffffffffffffffffffffffff1673ffffffffffffffffffffffffffffffffffffffff168152602001908152602001600020908054610cf4929190610d34565b507fd7af541a9a067d76d1edcc4a6e29675424934d12623e02c4cb0685b3d1fe9f0333604051610d2491906114c2565b60405180910390a1505050505050565b828054828255906000526020600020906004028101928215610dd15760005260206000209160040282015b82811115610dd05782826000820154816000015560018201816001019081610d879190611762565b50600282015481600201556003820160009054906101000a900460ff168160030160006101000a81548160ff021916908315150217905550505091600401919060040190610d5f565b5b509050610dde9190610e70565b5090565b508054610dee9061156f565b6000825580601f10610e005750610e1f565b601f016020900490600052602060002090810190610e1e9190610ebb565b5b50565b5080546000825560040290600052602060002090810190610e439190610e70565b50565b60405180608001604052806000815260200160608152602001600081526020016000151581525090565b5b80821115610eb757600080820160009055600182016000610e929190610de2565b60028201600090556003820160006101000a81549060ff021916905550600401610e71565b5090565b5b80821115610ed4576000816000905550600101610ebc565b5090565b6000604051905090565b600080fd5b600080fd5b6000819050919050565b610eff81610eec565b8114610f0a57600080fd5b50565b600081359050610f1c81610ef6565b92915050565b600060208284031215610f3857610f37610ee2565b5b6000610f4684828501610f0d565b91505092915050565b610f5881610eec565b82525050565b6000602082019050610f736000830184610f4f565b92915050565b600080fd5b600080fd5b6000601f19601f8301169050919050565b7f4e487b7100000000000000000000000000000000000000000000000000000000600052604160045260246000fd5b610fcc82610f83565b810181811067ffffffffffffffff82111715610feb57610fea610f94565b5b80604052505050565b6000610ffe610ed8565b905061100a8282610fc3565b919050565b600067ffffffffffffffff82111561102a57611029610f94565b5b61103382610f83565b9050602081019050919050565b82818337600083830152505050565b600061106261105d8461100f565b610ff4565b90508281526020810184848401111561107e5761107d610f7e565b5b611089848285611040565b509392505050565b600082601f8301126110a6576110a5610f79565b5b81356110b684826020860161104f565b91505092915050565b60008115159050919050565b6110d4816110bf565b81146110df57600080fd5b50565b6000813590506110f1816110cb565b92915050565b6000806000606084860312156111105761110f610ee2565b5b600084013567ffffffffffffffff81111561112e5761112d610ee7565b5b61113a86828701611091565b935050602061114b86828701610f0d565b925050604061115c868287016110e2565b9150509250925092565b600081519050919050565b600082825260208201905092915050565b6000819050602082019050919050565b61119b81610eec565b82525050565b600081519050919050565b600082825260208201905092915050565b60005b838110156111db5780820151818401526020810190506111c0565b60008484015250505050565b60006111f2826111a1565b6111fc81856111ac565b935061120c8185602086016111bd565b61121581610f83565b840191505092915050565b611229816110bf565b82525050565b60006080830160008301516112476000860182611192565b506020830151848203602086015261125f82826111e7565b91505060408301516112746040860182611192565b5060608301516112876060860182611220565b508091505092915050565b600061129e838361122f565b905092915050565b6000602082019050919050565b60006112be82611166565b6112c88185611171565b9350836020820285016112da85611182565b8060005b8581101561131657848403895281516112f78582611292565b9450611302836112a6565b925060208a019950506001810190506112de565b50829750879550505050505092915050565b6000602082019050818103600083015261134281846112b3565b905092915050565b60006080830160008301516113626000860182611192565b506020830151848203602086015261137a82826111e7565b915050604083015161138f6040860182611192565b5060608301516113a26060860182611220565b508091505092915050565b600060208201905081810360008301526113c7818461134a565b905092915050565b600080600080608085870312156113e9576113e8610ee2565b5b600085013567ffffffffffffffff81111561140757611406610ee7565b5b61141387828801611091565b945050602061142487828801610f0d565b9350506040611435878288016110e2565b925050606061144687828801610f0d565b91505092959194509250565b7f4e487b7100000000000000000000000000000000000000000000000000000000600052603260045260246000fd5b600073ffffffffffffffffffffffffffffffffffffffff82169050919050565b60006114ac82611481565b9050919050565b6114bc816114a1565b82525050565b60006020820190506114d760008301846114b3565b92915050565b7f4e487b7100000000000000000000000000000000000000000000000000000000600052601160045260246000fd5b600061151782610eec565b915061152283610eec565b925082820390508181111561153a576115396114dd565b5b92915050565b7f4e487b7100000000000000000000000000000000000000000000000000000000600052602260045260246000fd5b6000600282049050600182168061158757607f821691505b60208210810361159a57611599611540565b5b50919050565b6000815490506115af8161156f565b9050919050565b60008190508160005260206000209050919050565b60006020601f8301049050919050565b600082821b905092915050565b6000600883026116187fffffffffffffffffffffffffffffffffffffffffffffffffffffffffffffffff826115db565b61162286836115db565b95508019841693508086168417925050509392505050565b6000819050919050565b600061165f61165a61165584610eec565b61163a565b610eec565b9050919050565b6000819050919050565b61167983611644565b61168d61168582611666565b8484546115e8565b825550505050565b600090565b6116a2611695565b6116ad818484611670565b505050565b5b818110156116d1576116c660008261169a565b6001810190506116b3565b5050565b601f821115611716576116e7816115b6565b6116f0846115cb565b810160208510156116ff578190505b61171361170b856115cb565b8301826116b2565b50505b505050565b600082821c905092915050565b60006117396000198460080261171b565b1980831691505092915050565b60006117528383611728565b9150826002028217905092915050565b818103611770575050611848565b611779826115a0565b67ffffffffffffffff81111561179257611791610f94565b5b61179c825461156f565b6117a78282856116d5565b6000601f8311600181146117d657600084156117c4578287015490505b6117ce8582611746565b865550611841565b601f1984166117e4876115b6565b96506117ef866115b6565b60005b82811015611817578489015482556001820191506001850194506020810190506117f2565b868310156118345784890154611830601f891682611728565b8355505b6001600288020188555050505b5050505050505b565b7f4e487b7100000000000000000000000000000000000000000000000000000000600052603160045260246000fd5b600061188482610eec565b91507fffffffffffffffffffffffffffffffffffffffffffffffffffffffffffffffff82036118b6576118b56114dd565b5b600182019050919050565b6118ca826111a1565b67ffffffffffffffff8111156118e3576118e2610f94565b5b6118ed825461156f565b6118f88282856116d5565b600060209050601f83116001811461192b5760008415611919578287015190505b6119238582611746565b86555061198b565b601f198416611939866115b6565b60005b828110156119615784890151825560018201915060208501945060208101905061193c565b8683101561197e578489015161197a601f891682611728565b8355505b6001600288020188555050505b50505050505056fea26469706673582212206a69607ba226778467c710f1fec5f558152bddf0d1bdc2e8c8b1abbe6209e0d964736f6c63430008130033",
  "devdoc": {
    "kind": "dev",
    "methods": {},
    "version": 1
  },
  "userdoc": {
    "kind": "user",
    "methods": {},
    "version": 1
  },
  "storageLayout": {
    "storage": [
      {
        "astId": 34,
        "contract": "contracts/TodoList.sol:TodoList",
        "label": "s_addressToTodos",
        "offset": 0,
        "slot": "0",
        "type": "t_mapping(t_address,t_array(t_struct(Todo)12_storage)dyn_storage)"
      },
      {
        "astId": 37,
        "contract": "contracts/TodoList.sol:TodoList",
        "label": "s_currentId",
        "offset": 0,
        "slot": "1",
        "type": "t_uint256"
      }
    ],
    "types": {
      "t_address": {
        "encoding": "inplace",
        "label": "address",
        "numberOfBytes": "20"
      },
      "t_array(t_struct(Todo)12_storage)dyn_storage": {
        "base": "t_struct(Todo)12_storage",
        "encoding": "dynamic_array",
        "label": "struct TodoList.Todo[]",
        "numberOfBytes": "32"
      },
      "t_bool": {
        "encoding": "inplace",
        "label": "bool",
        "numberOfBytes": "1"
      },
      "t_mapping(t_address,t_array(t_struct(Todo)12_storage)dyn_storage)": {
        "encoding": "mapping",
        "key": "t_address",
        "label": "mapping(address => struct TodoList.Todo[])",
        "numberOfBytes": "32",
        "value": "t_array(t_struct(Todo)12_storage)dyn_storage"
      },
      "t_string_storage": {
        "encoding": "bytes",
        "label": "string",
        "numberOfBytes": "32"
      },
      "t_struct(Todo)12_storage": {
        "encoding": "inplace",
        "label": "struct TodoList.Todo",
        "members": [
          {
            "astId": 5,
            "contract": "contracts/TodoList.sol:TodoList",
            "label": "id",
            "offset": 0,
            "slot": "0",
            "type": "t_uint256"
          },
          {
            "astId": 7,
            "contract": "contracts/TodoList.sol:TodoList",
            "label": "message",
            "offset": 0,
            "slot": "1",
            "type": "t_string_storage"
          },
          {
            "astId": 9,
            "contract": "contracts/TodoList.sol:TodoList",
            "label": "date",
            "offset": 0,
            "slot": "2",
            "type": "t_uint256"
          },
          {
            "astId": 11,
            "contract": "contracts/TodoList.sol:TodoList",
            "label": "isCompleted",
            "offset": 0,
            "slot": "3",
            "type": "t_bool"
          }
        ],
        "numberOfBytes": "128"
      },
      "t_uint256": {
        "encoding": "inplace",
        "label": "uint256",
        "numberOfBytes": "32"
      }
    }
  }
}